{
  "contractName": "Collectible",
  "abi": [
    {
      "inputs": [],
      "name": "getName",
      "outputs": [
        {
          "internalType": "string",
          "name": "",
          "type": "string"
        }
      ],
      "stateMutability": "view",
      "type": "function",
      "constant": true
    },
    {
      "inputs": [
        {
          "internalType": "string",
          "name": "name",
          "type": "string"
        }
      ],
      "name": "setName",
      "outputs": [],
      "stateMutability": "nonpayable",
      "type": "function"
    },
    {
      "inputs": [],
      "name": "getMyName",
      "outputs": [
        {
          "internalType": "string",
          "name": "",
          "type": "string"
        }
      ],
      "stateMutability": "view",
      "type": "function",
      "constant": true
    }
  ],
  "bytecode": "0x608060405234801561001057600080fd5b506104ea806100206000396000f3fe608060405234801561001057600080fd5b50600436106100415760003560e01c806317d7de7c1461004657806375a54bc214610064578063c47f002714610082575b600080fd5b61004e61009e565b60405161005b919061030c565b60405180910390f35b61006c610130565b604051610079919061030c565b60405180910390f35b61009c60048036038101906100979190610292565b61016d565b005b6060600080546100ad906103e2565b80601f01602080910402602001604051908101604052809291908181526020018280546100d9906103e2565b80156101265780601f106100fb57610100808354040283529160200191610126565b820191906000526020600020905b81548152906001019060200180831161010957829003601f168201915b5050505050905090565b60606040518060400160405280601d81526020017f4a6564696469616820526f646e6579204b77616f205465747465682020000000815250905090565b8060009080519060200190610183929190610187565b5050565b828054610193906103e2565b90600052602060002090601f0160209004810192826101b557600085556101fc565b82601f106101ce57805160ff19168380011785556101fc565b828001600101855582156101fc579182015b828111156101fb5782518255916020019190600101906101e0565b5b509050610209919061020d565b5090565b5b8082111561022657600081600090555060010161020e565b5090565b600061023d61023884610353565b61032e565b90508281526020810184848401111561025557600080fd5b6102608482856103a0565b509392505050565b600082601f83011261027957600080fd5b813561028984826020860161022a565b91505092915050565b6000602082840312156102a457600080fd5b600082013567ffffffffffffffff8111156102be57600080fd5b6102ca84828501610268565b91505092915050565b60006102de82610384565b6102e8818561038f565b93506102f88185602086016103af565b610301816104a3565b840191505092915050565b6000602082019050818103600083015261032681846102d3565b905092915050565b6000610338610349565b90506103448282610414565b919050565b6000604051905090565b600067ffffffffffffffff82111561036e5761036d610474565b5b610377826104a3565b9050602081019050919050565b600081519050919050565b600082825260208201905092915050565b82818337600083830152505050565b60005b838110156103cd5780820151818401526020810190506103b2565b838111156103dc576000848401525b50505050565b600060028204905060018216806103fa57607f821691505b6020821081141561040e5761040d610445565b5b50919050565b61041d826104a3565b810181811067ffffffffffffffff8211171561043c5761043b610474565b5b80604052505050565b7f4e487b7100000000000000000000000000000000000000000000000000000000600052602260045260246000fd5b7f4e487b7100000000000000000000000000000000000000000000000000000000600052604160045260246000fd5b6000601f19601f830116905091905056fea26469706673582212201eec2eb1a8498f51e61126a2f5a4cab9c5de65a8bc67c4f4c7d7213082dfeb2964736f6c63430008040033",
  "immutableReferences": {},
  "source": "// SPDX-Licensce-Identifier: MIT\npragma solidity ^0.8.0;\n\n/*\n1. create your contract ----> solidity\n2. compile it \n3. deploy \n*/\n\ncontract Collectible {\n    string _name;\n\n    function getName() view public returns (string memory){\n        return _name;\n    }\n\n    function setName(string memory name) public {\n        _name = name;\n    }\n\n    function getMyName() view public returns (string memory){\n        return \"Jedidiah Rodney Kwao Tetteh  \";\n    }\n}",
  "sourcePath": "/Users/Rodney/bloack-chain-rodney/contracts/Collectible.sol",
  "compiler": {
    "name": "solc",
    "version": "0.8.4+commit.c7e474f2.Emscripten.clang"
  },
  "schemaVersion": "3.4.3",
  "updatedAt": "2021-10-22T12:16:05.211Z",
  "networkType": "ethereum",
  "devdoc": {
    "kind": "dev",
    "methods": {},
    "version": 1
  },
  "userdoc": {
    "kind": "user",
    "methods": {},
    "version": 1
  }
}